S00B0000504D572E7372656325
S11300000C942A000C9434000C9434000C943400A6
S11300100C9434000C9434000C9434000C9434008C
S11300200C9434000C9434000C9434000C9434007C
S11300300C9434000C9434000C9434000C9434006C
S11300400C9434000C9434000C9434000C9434005C
S11300500C94340011241FBECFE5D4E0DEBFCDBF25
S11300600E9436000C946A000C94000082EA8FBD52
S113007089E18EBD8FE79EE397BD86BD8FE99FE042
S11300809BBD8ABD8FED9EE299BD88BD87B3866016
S113009087BB30E020E05FEF40E0832F922F9BBDD1
S11300A08ABDE3ECF9E03197F1F700C00000019656
S11300B08F3F9105A1F7852F942F9BBD8ABDE3EC5B
S11300C0F9E03197F1F700C0000001978130910504
S10B00D0A1F7E3CFF894FFCF80
S9030000FC
